{
  "contractName": "CompanyModel",
  "abi": [
    {
      "inputs": [],
      "stateMutability": "nonpayable",
      "type": "constructor"
    },
    {
      "inputs": [
        {
          "internalType": "address payable",
          "name": "companyBuilder",
          "type": "address"
        },
        {
          "internalType": "string",
          "name": "companyname",
          "type": "string"
        }
      ],
      "name": "createModel",
      "outputs": [],
      "stateMutability": "nonpayable",
      "type": "function"
    },
    {
      "inputs": [],
      "name": "display",
      "outputs": [
        {
          "internalType": "string",
          "name": "",
          "type": "string"
        }
      ],
      "stateMutability": "view",
      "type": "function"
    },
    {
      "inputs": [
        {
          "internalType": "string",
          "name": "name",
          "type": "string"
        }
      ],
      "name": "setCompanyName",
      "outputs": [],
      "stateMutability": "nonpayable",
      "type": "function"
    },
    {
      "inputs": [],
      "name": "totalMembers",
      "outputs": [
        {
          "internalType": "uint256",
          "name": "",
          "type": "uint256"
        }
      ],
      "stateMutability": "view",
      "type": "function"
    }
  ],
  "bytecode": "0x60806040523480156200001157600080fd5b50d380156200001f57600080fd5b50d280156200002d57600080fd5b5033600160006101000a81548173ffffffffffffffffffffffffffffffffffffffff021916908373ffffffffffffffffffffffffffffffffffffffff160217905550600a6002819055506040518060400160405280600781526020017f53696e736f6e670000000000000000000000000000000000000000000000000081525060039080519060200190620000c49291906200014b565b50334260036005604051620000d990620001dc565b620000e8949392919062000274565b604051809103906000f08015801562000105573d6000803e3d6000fd5b506000806101000a81548173ffffffffffffffffffffffffffffffffffffffff021916908373ffffffffffffffffffffffffffffffffffffffff160217905550620003db565b82805462000159906200034d565b90600052602060002090601f0160209004810192826200017d5760008555620001c9565b82601f106200019857805160ff1916838001178555620001c9565b82800160010185558215620001c9579182015b82811115620001c8578251825591602001919060010190620001ab565b5b509050620001d89190620001ea565b5090565b61090e8062000b4e83390190565b5b8082111562000205576000816000905550600101620001eb565b5090565b6200021481620002e7565b82525050565b620002258162000325565b82525050565b620002368162000339565b82525050565b60006200024b600583620002d6565b91506200025882620003b2565b602082019050919050565b6200026e816200031b565b82525050565b600060a0820190506200028b600083018762000209565b81810360208301526200029e816200023c565b9050620002af604083018662000263565b620002be60608301856200021a565b620002cd60808301846200022b565b95945050505050565b600082825260208201905092915050565b6000620002f482620002fb565b9050919050565b600073ffffffffffffffffffffffffffffffffffffffff82169050919050565b6000819050919050565b600062000332826200031b565b9050919050565b600062000346826200031b565b9050919050565b600060028204905060018216806200036657607f821691505b602082108114156200037d576200037c62000383565b5b50919050565b7f4e487b7100000000000000000000000000000000000000000000000000000000600052602260045260246000fd5b7f4a616d6573000000000000000000000000000000000000000000000000000000600082015250565b61076380620003eb6000396000f3fe608060405234801561001057600080fd5b50d3801561001d57600080fd5b50d2801561002a57600080fd5b50600436106100665760003560e01c80630c1b7c1e1461006b57806376e9255914610089578063c59eba0c146100a7578063eb3313f0146100c3575b600080fd5b6100736100df565b60405161008091906104e2565b60405180910390f35b610091610189565b60405161009e9190610504565b60405180910390f35b6100c160048036038101906100bc91906103ac565b610193565b005b6100dd60048036038101906100d89190610408565b6101ef565b005b606060008054906101000a900473ffffffffffffffffffffffffffffffffffffffff1673ffffffffffffffffffffffffffffffffffffffff166317d7de7c6040518163ffffffff1660e01b815260040160006040518083038186803b15801561014757600080fd5b505afa15801561015b573d6000803e3d6000fd5b505050506040513d6000823e3d601f19601f820116820180604052508101906101849190610451565b905090565b6000600254905090565b81600160006101000a81548173ffffffffffffffffffffffffffffffffffffffff021916908373ffffffffffffffffffffffffffffffffffffffff16021790555080600390805190602001906101ea929190610209565b505050565b8060039080519060200190610205929190610209565b5050565b82805461021590610630565b90600052602060002090601f016020900481019282610237576000855561027e565b82601f1061025057805160ff191683800117855561027e565b8280016001018555821561027e579182015b8281111561027d578251825591602001919060010190610262565b5b50905061028b919061028f565b5090565b5b808211156102a8576000816000905550600101610290565b5090565b60006102bf6102ba84610544565b61051f565b9050828152602081018484840111156102db576102da6106f6565b5b6102e68482856105ee565b509392505050565b60006103016102fc84610544565b61051f565b90508281526020810184848401111561031d5761031c6106f6565b5b6103288482856105fd565b509392505050565b60008135905061033f81610716565b61034881610591565b905092915050565b600082601f830112610365576103646106f1565b5b81356103758482602086016102ac565b91505092915050565b600082601f830112610393576103926106f1565b5b81516103a38482602086016102ee565b91505092915050565b600080604083850312156103c3576103c2610700565b5b60006103d185828601610330565b925050602083013567ffffffffffffffff8111156103f2576103f16106fb565b5b6103fe85828601610350565b9150509250929050565b60006020828403121561041e5761041d610700565b5b600082013567ffffffffffffffff81111561043c5761043b6106fb565b5b61044884828501610350565b91505092915050565b60006020828403121561046757610466610700565b5b600082015167ffffffffffffffff811115610485576104846106fb565b5b6104918482850161037e565b91505092915050565b60006104a582610575565b6104af8185610580565b93506104bf8185602086016105fd565b6104c881610705565b840191505092915050565b6104dc816105e4565b82525050565b600060208201905081810360008301526104fc818461049a565b905092915050565b600060208201905061051960008301846104d3565b92915050565b600061052961053a565b90506105358282610662565b919050565b6000604051905090565b600067ffffffffffffffff82111561055f5761055e6106c2565b5b61056882610705565b9050602081019050919050565b600081519050919050565b600082825260208201905092915050565b600061059c826105a3565b9050919050565b600073ffffffffffffffffffffffffffffffffffffffff82169050919050565b600074ffffffffffffffffffffffffffffffffffffffffff82169050919050565b6000819050919050565b82818337600083830152505050565b60005b8381101561061b578082015181840152602081019050610600565b8381111561062a576000848401525b50505050565b6000600282049050600182168061064857607f821691505b6020821081141561065c5761065b610693565b5b50919050565b61066b82610705565b810181811067ffffffffffffffff8211171561068a576106896106c2565b5b80604052505050565b7f4e487b7100000000000000000000000000000000000000000000000000000000600052602260045260246000fd5b7f4e487b7100000000000000000000000000000000000000000000000000000000600052604160045260246000fd5b600080fd5b600080fd5b600080fd5b600080fd5b6000601f19601f8301169050919050565b61071f816105c3565b811461072a57600080fd5b5056fea26474726f6e58221220cd1ba4637791d78ace1ac2a9486279f84bed25d2475241d9a03d148346e7002764736f6c6343000806003360806040523480156200001157600080fd5b50d380156200001f57600080fd5b50d280156200002d57600080fd5b506040516200090e3803806200090e833981810160405281019062000053919062000244565b846000800160006101000a81548173ffffffffffffffffffffffffffffffffffffffff021916908373ffffffffffffffffffffffffffffffffffffffff1602179055508360006001019080519060200190620000b1929190620000db565b50826000600201819055508160006003018190555080600060040181905550505050505062000502565b828054620000e990620003df565b90600052602060002090601f0160209004810192826200010d576000855562000159565b82601f106200012857805160ff191683800117855562000159565b8280016001018555821562000159579182015b82811115620001585782518255916020019190600101906200013b565b5b5090506200016891906200016c565b5090565b5b80821115620001875760008160009055506001016200016d565b5090565b6000620001a26200019c8462000314565b620002eb565b905082815260208101848484011115620001c157620001c0620004ae565b5b620001ce848285620003a9565b509392505050565b600081519050620001e781620004ce565b620001f2816200034a565b905092915050565b600082601f830112620002125762000211620004a9565b5b8151620002248482602086016200018b565b91505092915050565b6000815190506200023e81620004e8565b92915050565b600080600080600060a08688031215620002635762000262620004b8565b5b60006200027388828901620001d6565b955050602086015167ffffffffffffffff811115620002975762000296620004b3565b5b620002a588828901620001fa565b9450506040620002b8888289016200022d565b9350506060620002cb888289016200022d565b9250506080620002de888289016200022d565b9150509295509295909350565b6000620002f76200030a565b905062000305828262000415565b919050565b6000604051905090565b600067ffffffffffffffff8211156200033257620003316200047a565b5b6200033d82620004bd565b9050602081019050919050565b600062000357826200035e565b9050919050565b600073ffffffffffffffffffffffffffffffffffffffff82169050919050565b600074ffffffffffffffffffffffffffffffffffffffffff82169050919050565b6000819050919050565b60005b83811015620003c9578082015181840152602081019050620003ac565b83811115620003d9576000848401525b50505050565b60006002820490506001821680620003f857607f821691505b602082108114156200040f576200040e6200044b565b5b50919050565b6200042082620004bd565b810181811067ffffffffffffffff821117156200044257620004416200047a565b5b80604052505050565b7f4e487b7100000000000000000000000000000000000000000000000000000000600052602260045260246000fd5b7f4e487b7100000000000000000000000000000000000000000000000000000000600052604160045260246000fd5b600080fd5b600080fd5b600080fd5b600080fd5b6000601f19601f8301169050919050565b620004d9816200037e565b8114620004e557600080fd5b50565b620004f3816200039f565b8114620004ff57600080fd5b50565b6103fc80620005126000396000f3fe608060405234801561001057600080fd5b50d3801561001d57600080fd5b50d2801561002a57600080fd5b50600436106100505760003560e01c806317d7de7c14610055578063316466ce14610073575b600080fd5b61005d610095565b60405161006a91906102a7565b60405180910390f35b61007b61012a565b60405161008c95949392919061024d565b60405180910390f35b6060600060010180546100a790610354565b80601f01602080910402602001604051908101604052809291908181526020018280546100d390610354565b80156101205780601f106100f557610100808354040283529160200191610120565b820191906000526020600020905b81548152906001019060200180831161010357829003601f168201915b5050505050905090565b60008060000160009054906101000a900473ffffffffffffffffffffffffffffffffffffffff169080600101805461016190610354565b80601f016020809104026020016040519081016040528092919081815260200182805461018d90610354565b80156101da5780601f106101af576101008083540402835291602001916101da565b820191906000526020600020905b8154815290600101906020018083116101bd57829003601f168201915b5050505050908060020154908060030154908060040154905085565b6101ff816102e5565b82525050565b6000610210826102c9565b61021a81856102d4565b935061022a818560208601610321565b610233816103b5565b840191505092915050565b61024781610317565b82525050565b600060a08201905061026260008301886101f6565b81810360208301526102748187610205565b9050610283604083018661023e565b610290606083018561023e565b61029d608083018461023e565b9695505050505050565b600060208201905081810360008301526102c18184610205565b905092915050565b600081519050919050565b600082825260208201905092915050565b60006102f0826102f7565b9050919050565b600073ffffffffffffffffffffffffffffffffffffffff82169050919050565b6000819050919050565b60005b8381101561033f578082015181840152602081019050610324565b8381111561034e576000848401525b50505050565b6000600282049050600182168061036c57607f821691505b602082108114156103805761037f610386565b5b50919050565b7f4e487b7100000000000000000000000000000000000000000000000000000000600052602260045260246000fd5b6000601f19601f830116905091905056fea26474726f6e58221220dbda8e4af9094bb8a62272a56bdce412b0b2b97c764e8ff3d28275e3e7f5686564736f6c63430008060033",
  "source": "// SPDX-License-Identifier: MIT\r\npragma solidity >=0.4.22 <0.9.0;\r\n\r\nimport \"./MemberMatrix.sol\";\r\nimport { Constant } from './Constant.sol';\r\n\r\ncontract CompanyModel {\r\n    MemberMatrix _director;\r\n\r\n    address payable private _companyBuilder;\r\n    uint _total_mem;\r\n    string _companyName;\r\n    mapping ( address => uint256 ) private _members;\r\n\r\n    constructor (){\r\n        _companyBuilder = payable(msg.sender);\r\n        _total_mem = 10;\r\n        _companyName = \"Sinsong\";\r\n        _director = new MemberMatrix(payable( msg.sender ) , \"James\", block.timestamp,3,5);\r\n    }\r\n\r\n    function createModel (\r\n        address payable companyBuilder,\r\n        string memory companyname\r\n    ) external {\r\n        _companyBuilder = payable(companyBuilder);\r\n        _companyName = companyname;\r\n    }\r\n\r\n    function totalMembers() public view returns (uint ){\r\n        return _total_mem;\r\n    }\r\n    \r\n    function setCompanyName(string memory name) public {\r\n        _companyName = name;\r\n    }\r\n\r\n    function display () external view returns (string memory) {\r\n        return _director.getName();\r\n    }  \r\n}",
  "sourcePath": "src/contracts/CompanyModel.sol",
  "compiler": {
    "name": "solc",
    "version": "0.8.6+commit.0e36fba0.mod.Emscripten.clang"
  },
  "schemaVersion": "2.0.1",
  "updatedAt": "2021-12-25T06:59:48.266Z"
}