{
  "contractName": "MemberMatrix",
  "abi": [
    {
      "inputs": [
        {
          "internalType": "address payable",
          "name": "creator",
          "type": "address"
        },
        {
          "internalType": "string",
          "name": "name",
          "type": "string"
        },
        {
          "internalType": "uint256",
          "name": "created_at",
          "type": "uint256"
        },
        {
          "internalType": "uint256",
          "name": "plain_pos",
          "type": "uint256"
        },
        {
          "internalType": "uint256",
          "name": "lv_pos",
          "type": "uint256"
        }
      ],
      "stateMutability": "nonpayable",
      "type": "constructor"
    },
    {
      "inputs": [],
      "name": "_memberOwner",
      "outputs": [
        {
          "internalType": "address payable",
          "name": "_creator",
          "type": "address"
        },
        {
          "internalType": "string",
          "name": "_name",
          "type": "string"
        },
        {
          "internalType": "uint256",
          "name": "_created_at",
          "type": "uint256"
        },
        {
          "internalType": "uint256",
          "name": "_plain_pos",
          "type": "uint256"
        },
        {
          "internalType": "uint256",
          "name": "_lv_pos",
          "type": "uint256"
        }
      ],
      "stateMutability": "view",
      "type": "function"
    },
    {
      "inputs": [],
      "name": "getName",
      "outputs": [
        {
          "internalType": "string",
          "name": "",
          "type": "string"
        }
      ],
      "stateMutability": "view",
      "type": "function"
    }
  ],
  "bytecode": "0x60806040523480156200001157600080fd5b50d380156200001f57600080fd5b50d280156200002d57600080fd5b506040516200090e3803806200090e833981810160405281019062000053919062000244565b846000800160006101000a81548173ffffffffffffffffffffffffffffffffffffffff021916908373ffffffffffffffffffffffffffffffffffffffff1602179055508360006001019080519060200190620000b1929190620000db565b50826000600201819055508160006003018190555080600060040181905550505050505062000502565b828054620000e990620003df565b90600052602060002090601f0160209004810192826200010d576000855562000159565b82601f106200012857805160ff191683800117855562000159565b8280016001018555821562000159579182015b82811115620001585782518255916020019190600101906200013b565b5b5090506200016891906200016c565b5090565b5b80821115620001875760008160009055506001016200016d565b5090565b6000620001a26200019c8462000314565b620002eb565b905082815260208101848484011115620001c157620001c0620004ae565b5b620001ce848285620003a9565b509392505050565b600081519050620001e781620004ce565b620001f2816200034a565b905092915050565b600082601f830112620002125762000211620004a9565b5b8151620002248482602086016200018b565b91505092915050565b6000815190506200023e81620004e8565b92915050565b600080600080600060a08688031215620002635762000262620004b8565b5b60006200027388828901620001d6565b955050602086015167ffffffffffffffff811115620002975762000296620004b3565b5b620002a588828901620001fa565b9450506040620002b8888289016200022d565b9350506060620002cb888289016200022d565b9250506080620002de888289016200022d565b9150509295509295909350565b6000620002f76200030a565b905062000305828262000415565b919050565b6000604051905090565b600067ffffffffffffffff8211156200033257620003316200047a565b5b6200033d82620004bd565b9050602081019050919050565b600062000357826200035e565b9050919050565b600073ffffffffffffffffffffffffffffffffffffffff82169050919050565b600074ffffffffffffffffffffffffffffffffffffffffff82169050919050565b6000819050919050565b60005b83811015620003c9578082015181840152602081019050620003ac565b83811115620003d9576000848401525b50505050565b60006002820490506001821680620003f857607f821691505b602082108114156200040f576200040e6200044b565b5b50919050565b6200042082620004bd565b810181811067ffffffffffffffff821117156200044257620004416200047a565b5b80604052505050565b7f4e487b7100000000000000000000000000000000000000000000000000000000600052602260045260246000fd5b7f4e487b7100000000000000000000000000000000000000000000000000000000600052604160045260246000fd5b600080fd5b600080fd5b600080fd5b600080fd5b6000601f19601f8301169050919050565b620004d9816200037e565b8114620004e557600080fd5b50565b620004f3816200039f565b8114620004ff57600080fd5b50565b6103fc80620005126000396000f3fe608060405234801561001057600080fd5b50d3801561001d57600080fd5b50d2801561002a57600080fd5b50600436106100505760003560e01c806317d7de7c14610055578063316466ce14610073575b600080fd5b61005d610095565b60405161006a91906102a7565b60405180910390f35b61007b61012a565b60405161008c95949392919061024d565b60405180910390f35b6060600060010180546100a790610354565b80601f01602080910402602001604051908101604052809291908181526020018280546100d390610354565b80156101205780601f106100f557610100808354040283529160200191610120565b820191906000526020600020905b81548152906001019060200180831161010357829003601f168201915b5050505050905090565b60008060000160009054906101000a900473ffffffffffffffffffffffffffffffffffffffff169080600101805461016190610354565b80601f016020809104026020016040519081016040528092919081815260200182805461018d90610354565b80156101da5780601f106101af576101008083540402835291602001916101da565b820191906000526020600020905b8154815290600101906020018083116101bd57829003601f168201915b5050505050908060020154908060030154908060040154905085565b6101ff816102e5565b82525050565b6000610210826102c9565b61021a81856102d4565b935061022a818560208601610321565b610233816103b5565b840191505092915050565b61024781610317565b82525050565b600060a08201905061026260008301886101f6565b81810360208301526102748187610205565b9050610283604083018661023e565b610290606083018561023e565b61029d608083018461023e565b9695505050505050565b600060208201905081810360008301526102c18184610205565b905092915050565b600081519050919050565b600082825260208201905092915050565b60006102f0826102f7565b9050919050565b600073ffffffffffffffffffffffffffffffffffffffff82169050919050565b6000819050919050565b60005b8381101561033f578082015181840152602081019050610324565b8381111561034e576000848401525b50505050565b6000600282049050600182168061036c57607f821691505b602082108114156103805761037f610386565b5b50919050565b7f4e487b7100000000000000000000000000000000000000000000000000000000600052602260045260246000fd5b6000601f19601f830116905091905056fea26474726f6e58221220dbda8e4af9094bb8a62272a56bdce412b0b2b97c764e8ff3d28275e3e7f5686564736f6c63430008060033",
  "source": "// SPDX-License-Identifier: MIT\r\npragma solidity >=0.4.22 <0.9.0;\r\n\r\nimport { Constant } from './Constant.sol';\r\n\r\ncontract MemberMatrix {\r\n    enum Package { SPACE_1, SPACE_2, SPACE_3, SPACE_4, SPACE_5 }\r\n    struct Member{\r\n        address payable _creator;\r\n        string _name;\r\n        uint256 _created_at;\r\n        uint256 _plain_pos;     // from left, dedicates pos in x-ray.\r\n        uint256 _lv_pos;     // from top, dedicates level pos.\r\n\r\n        mapping(uint => MemberMatrix) childMembers;\r\n    }\r\n    Member public _memberOwner;\r\n    constructor (\r\n        address payable creator,\r\n        string memory name,\r\n        uint256 created_at,\r\n        uint256 plain_pos,\r\n        uint256 lv_pos\r\n    ) {\r\n        _memberOwner._creator = creator;\r\n        _memberOwner._name = name;\r\n        _memberOwner._created_at = created_at;\r\n        _memberOwner._plain_pos = plain_pos;\r\n        _memberOwner._lv_pos = lv_pos;\r\n    }\r\n\r\n    function getName() public view returns(string memory) {\r\n        return _memberOwner._name;\r\n    }\r\n}",
  "sourcePath": "src/contracts/MemberMatrix.sol",
  "compiler": {
    "name": "solc",
    "version": "0.8.6+commit.0e36fba0.mod.Emscripten.clang"
  },
  "schemaVersion": "2.0.1",
  "updatedAt": "2021-12-25T06:59:29.500Z"
}