{
    "contractName": "Main",
    "abi": [
        {
            "inputs": [],
            "stateMutability": "nonpayable",
            "type": "constructor"
        },
        {
            "inputs": [],
            "name": "createModel",
            "outputs": [],
            "stateMutability": "nonpayable",
            "type": "function"
        },
        {
            "inputs": [],
            "name": "display",
            "outputs": [
                {
                    "internalType": "string",
                    "name": "",
                    "type": "string"
                }
            ],
            "stateMutability": "view",
            "type": "function"
        },
        {
            "inputs": [
                {
                    "internalType": "address",
                    "name": "addr",
                    "type": "address"
                },
                {
                    "internalType": "address",
                    "name": "invite_addr",
                    "type": "address"
                }
            ],
            "name": "enterCrowdSale",
            "outputs": [],
            "stateMutability": "nonpayable",
            "type": "function"
        },
        {
            "inputs": [
                {
                    "internalType": "uint256",
                    "name": "space_ID",
                    "type": "uint256"
                },
                {
                    "internalType": "address",
                    "name": "addr",
                    "type": "address"
                },
                {
                    "internalType": "uint256",
                    "name": "mem_type",
                    "type": "uint256"
                }
            ],
            "name": "enterSpace",
            "outputs": [],
            "stateMutability": "nonpayable",
            "type": "function"
        },
        {
            "inputs": [
                {
                    "internalType": "address",
                    "name": "addr",
                    "type": "address"
                }
            ],
            "name": "getCurUpgradeSpace",
            "outputs": [
                {
                    "internalType": "uint256",
                    "name": "space_ID",
                    "type": "uint256"
                }
            ],
            "stateMutability": "view",
            "type": "function"
        },
        {
            "inputs": [
                {
                    "internalType": "uint256",
                    "name": "space_ID",
                    "type": "uint256"
                },
                {
                    "internalType": "address",
                    "name": "mem_addr",
                    "type": "address"
                }
            ],
            "name": "getMemberCnt",
            "outputs": [
                {
                    "internalType": "string",
                    "name": "",
                    "type": "string"
                }
            ],
            "stateMutability": "view",
            "type": "function"
        },
        {
            "inputs": [
                {
                    "internalType": "uint256",
                    "name": "space_ID",
                    "type": "uint256"
                },
                {
                    "internalType": "address",
                    "name": "mem_addr",
                    "type": "address"
                },
                {
                    "internalType": "uint256",
                    "name": "nIndex",
                    "type": "uint256"
                }
            ],
            "name": "getMemberInfo",
            "outputs": [
                {
                    "internalType": "string",
                    "name": "",
                    "type": "string"
                },
                {
                    "internalType": "string",
                    "name": "",
                    "type": "string"
                },
                {
                    "internalType": "string",
                    "name": "",
                    "type": "string"
                },
                {
                    "internalType": "string",
                    "name": "",
                    "type": "string"
                },
                {
                    "internalType": "string",
                    "name": "",
                    "type": "string"
                }
            ],
            "stateMutability": "view",
            "type": "function"
        },
        {
            "inputs": [],
            "name": "output",
            "outputs": [
                {
                    "internalType": "string",
                    "name": "",
                    "type": "string"
                }
            ],
            "stateMutability": "view",
            "type": "function"
        },
        {
            "inputs": [
                {
                    "internalType": "address",
                    "name": "addr",
                    "type": "address"
                },
                {
                    "internalType": "uint256",
                    "name": "amount",
                    "type": "uint256"
                }
            ],
            "name": "pushMoneyToUpgrade",
            "outputs": [],
            "stateMutability": "nonpayable",
            "type": "function"
        },
        {
            "inputs": [
                {
                    "internalType": "uint256",
                    "name": "value",
                    "type": "uint256"
                }
            ],
            "name": "setValue",
            "outputs": [],
            "stateMutability": "nonpayable",
            "type": "function"
        }
    ],
    "bytecode": "608060405234801561001057600080fd5b506123eb806100206000396000f3fe608060405234801561001057600080fd5b506004361061009e5760003560e01c8063552410771161006657806355241077146101c05780635a33d61c146101dd578063a4732d4b1461020b578063d931edd114610237578063f20eaeb8146104795761009e565b80630c1b7c1e146100a35780630e702d57146101205780634be4c8931461015857806351ac3d7c1461016257806354acba1614610194575b600080fd5b6100ab610481565b6040805160208082528351818301528351919283929083019185019080838360005b838110156100e55781810151838201526020016100cd565b50505050905090810190601f1680156101125780820380516001836020036101000a031916815260200191505b509250505060405180910390f35b6101466004803603602081101561013657600080fd5b50356001600160a01b0316610498565b60408051918252519081900360200190f35b6101606104fe565b005b6101606004803603606081101561017857600080fd5b508035906001600160a01b036020820135169060400135610575565b6100ab600480360360408110156101aa57600080fd5b50803590602001356001600160a01b03166105a6565b610160600480360360208110156101d657600080fd5b5035610673565b610160600480360360408110156101f357600080fd5b506001600160a01b0381358116916020013516610678565b6101606004803603604081101561022157600080fd5b506001600160a01b03813516906020013561073e565b6102696004803603606081101561024d57600080fd5b508035906001600160a01b03602082013516906040013561092a565b60405180806020018060200180602001806020018060200186810386528b818151815260200191508051906020019080838360005b838110156102b657818101518382015260200161029e565b50505050905090810190601f1680156102e35780820380516001836020036101000a031916815260200191505b5086810385528a5181528a516020918201918c019080838360005b838110156103165781810151838201526020016102fe565b50505050905090810190601f1680156103435780820380516001836020036101000a031916815260200191505b5086810384528951815289516020918201918b019080838360005b8381101561037657818101518382015260200161035e565b50505050905090810190601f1680156103a35780820380516001836020036101000a031916815260200191505b5086810383528851815288516020918201918a019080838360005b838110156103d65781810151838201526020016103be565b50505050905090810190601f1680156104035780820380516001836020036101000a031916815260200191505b50868103825287518152875160209182019189019080838360005b8381101561043657818101518382015260200161041e565b50505050905090810190601f1680156104635780820380516001836020036101000a031916815260200191505b509a505050505050505050505060405180910390f35b6100ab610a47565b600d54606090819061049290610a51565b91505090565b600160005b60058110156104f757600781600581106104b357fe5b6001600160a01b03851660009081526001600a9290920292909201016020526040902060020154156104ea578060010191506104ef565b6104f7565b60010161049d565b505b919050565b60005b600581101561057257610528816001016007836005811061051e57fe5b600a020190610b23565b610549306351ac3d7c6007846005811061053e57fe5b600a02019190610b47565b61056a3063552410776007846005811061055f57fe5b600a02019190610b80565b600101610501565b50565b6105a160396001603a60058686600760018b036005811061059257fe5b600a0201959493929190610bb9565b505050565b606080600760018503600581106105b957fe5b600a02016001016000846001600160a01b03166001600160a01b03168152602001908152602001600020600201805480602002602001604051908101604052809291908181526020016000905b828210156106565783829060005260206000209060030201604051806060016040529081600082015481526020016001820154815260200160028201548152505081526020019060010190610606565b50505050905060606106688251610a51565b925050505b92915050565b603d55565b6001600160a01b038281166000908152603a60205260409020541661070057603c8054600181019091557fc6bb06cb7f92603de181bf256cd16846b93b752a170ff24824098b31aa008a7e0180546001600160a01b03199081166001600160a01b038581169182179093556000908152603a6020526040902080549091169183169190911790555b6001600160a01b0381166000908152603b602052604081208054600190810190915561073a9160399190603a906005908790600781610592565b5050565b61074661231b565b506040805160c0810182526001815260646020808301919091526101f4828401526109c460608301526130d4608083015261f42460a08301528251630e702d5760e01b81526001600160a01b0386166004820152925191926000923092630e702d579260248082019391829003018186803b1580156107c457600080fd5b505afa1580156107d8573d6000803e3d6000fd5b505050506040513d60208110156107ee57600080fd5b50519050600581141561080257505061073a565b6001600160a01b0384166000908152603960205260409020839060001983016005811061082b57fe5b01805490910190555b6001600160a01b03841660009081526039602052604090206108569082610caa565b156109245781816001016006811061086a57fe5b602002015161ffff1660396000866001600160a01b03166001600160a01b0316815260200190815260200160002060000160018303600581106108a957fe5b0180549190910390556040805163146b0f5f60e21b8152600481018390526001600160a01b038616602482015260026044820152905130916351ac3d7c91606480830192600092919082900301818387803b15801561090757600080fd5b505af115801561091b573d6000803e3d6000fd5b50505050610834565b50505050565b6060806060806060600080600061093f612339565b600760018d036005811061094f57fe5b600a020160010160008c6001600160a01b03166001600160a01b031681526020019081526020016000206002018a8154811061098757fe5b6000918252602091829020604080516060810182526003909302909101805483526001810154938301849052600201549082015291506109dc9060076000198f01600581106109d257fe5b600a020190610d26565b9195509350915060606109ee85610a51565b905060606109fb85610a51565b90506060610a0885610a51565b90506060610a198560200151610a51565b90506060610a2a8660400151610a51565b9d50909b5092995090975095505050505050939792965093509350565b606080610492603d545b606081610a7657506040805180820190915260018152600360fc1b60208201526104f9565b8160005b8115610a8e57600101600a82049150610a7a565b60608167ffffffffffffffff81118015610aa757600080fd5b506040519080825280601f01601f191660200182016040528015610ad2576020820181803683370190505b5090505b8415610b1b5760001990910190600a850660300160f81b818381518110610af957fe5b60200101906001600160f81b031916908160001a905350600a85049450610ad6565b949350505050565b60078201556000600382018190556004820181905560058201819055600690910155565b60089290920180546001600160c01b03191663ffffffff90931660209290921b640100000000600160c01b031691909117919091179055565b60099290920180546001600160c01b03191663ffffffff90931660209290921b640100000000600160c01b031691909117919091179055565b6000610bc488610f11565b600289018054600180820183556000928352602080842090920180546001600160a01b0319166001600160a01b03891690811790915560068d0154908452908c019091526040909120919250610c1f919060001901846110d9565b6001600160a01b03808416600090815260208790526040902054610c47918a91869116611124565b610c568888888660018661119a565b610c658888888660028661119a565b610c748888888660038661119a565b610c7f888785611241565b505081546001600160a01b039190911680319091018255600190910180549131909101905550505050565b6000610cb461235a565b506040805160a081018252600181526101f460208201526109c4918101919091526130d4606082015261f4246080820152808360058110610cf157fe5b602002015161ffff1684600019850160058110610d0a57fe5b01541015610d1c57600091505061066d565b600191505061066d565b600080808080808080610d3761235a565b610d3f612378565b600093505b6005841015610dc35760008b815260208d9052604081206001860160068110610d6957fe5b01541415610d845750949750929550909350610f0a92505050565b60008b815260208d9052604090206001850160068110610da057fe5b01546001880197839060058110610db357fe5b6020020152600190930192610d44565b600093505b6005841015610e77576000828560058110610ddf57fe5b60200201519050600093505b6005841015610e6b57600081815260208e9052604081206001860160068110610e1057fe5b01541415610e2c5750959850939650919450610f0a9350505050565b600081815260208e9052604090206001850160068110610e4857fe5b01546001880197839060198110610e5b57fe5b6020020152600190930192610deb565b50600190930192610dc8565b600093505b6019841015610efc576000818560198110610e9357fe5b60200201519050600093505b6005841015610ef057600081815260208e9052604081206001860160068110610ec457fe5b01541415610ee05750959850939650919450610f0a9350505050565b6001958601959390930192610e9f565b50600190930192610e7c565b509497509295509093505050505b9250925092565b6006810180546001019055600080808060038501810154610f4057505060016003840181905591506104f99050565b600385015460011415610fdc576004850180546001019081905560068087015460008080526020899052604090206000199091019290918110610f7f57fe5b0155600685018054600019908101600090815260208890526040812081905591546004880154610fb4938993909201906113bc565b50600485015493506005841415610fd45760026003860155600060048601555b5050506104f9565b600385015460021415611082576004850180546001810190915560008080526020879052604081209091600590046001016006811061101757fe5b01549050611053816001886006015403600560018a60030160016003811061103b57fe5b0154038161104557fe5b8a93929160019106016113bc565b506004860154945060198514156110795760038681015560006004870181905560058701555b505050506104f9565b61108b856113fe565b9194509250905061109e858484846113bc565b506004850154600386015490945060050a8414156110d15760038501805460010190556005850180546004870155600090555b505050919050565b60408051606081018252428152602080820194855291810192835260029485018054600181810183556000928352939091209151600390910290910190815592519083015551910155565b61112c61231b565b506040805160c08101825260018152606460208201526101f4918101919091526109c460608201526130d4608082015261f42460a082015260078401546109249084908490600590600e9086906006811061118357fe5b602002015161ffff16028161119457fe5b046114ce565b6111a2612397565b50604080516080810182526001815260056020820152601991810191909152607d606082015260008184600481106111d657fe5b602002015160ff1683816111e657fe5b061561120e578184600481106111f857fe5b602002015160ff16838161120857fe5b06611223565b81846004811061121a57fe5b602002015160ff165b9050600061123589898989898761151e565b50505050505050505050565b61124961231b565b506040805160c081018252600181526064602082018190526101f4928201929092526109c460608201526130d4608082015261f42460a0820152600785015490916112b591849173158de12ee547eae06cbdb200a017aca6b75d230d91600e9086906006811061118357fe5b6064600e828660070154600681106112c957fe5b602002015161ffff1602816112da57fe5b04600184016000016000828254019250508190555061131c8273158de12ee547eae06cbdb200a017aca6b75d230d6064600e8589600701546006811061118357fe5b6064600e8286600701546006811061133057fe5b602002015161ffff16028161134157fe5b04600180850101600082825401925050819055506113828273158de12ee547eae06cbdb200a017aca6b75d230d6064600e8589600701546006811061118357fe5b6064600e8286600701546006811061139657fe5b602002015161ffff1602816113a757fe5b04600184016002018054909101905550505050565b60006113c88584611f8b565b1580156113da57506113da8585611f8b565b156113f3576113eb85858585611ff6565b506001610b1b565b506000949350505050565b600381015460048201546000918291829182918291600581810a926001909201900a906064603c840204111561145f5760048801805460019081019091556114559060038a01905b015460038a01548a9190612027565b90945092506114b5565b60058801546064600883020411156114935760058801805460019081019182905560038a0154611455928b92909101612027565b60048801805460019081019091556114af9060038a0190611446565b90945092505b5050600695909501549095600019909101949350915050565b816001600160a01b0316836001600160a01b03167fddf252ad1be2c89b69c2b068fc378daa952ba7f163c4a11628f55a4df523b3ef836040518082815260200191505060405180910390a3505050565b600686015460078701546000916000190190829061153a61231b565b506040805160c08101825260018152606460208201526101f4918101919091526109c460608201526130d4608082015261f42460a08201525b868310156115a25760006115878c866120dd565b955090508061159657506115a2565b50600190920191611573565b86831461171657866001141561162657600e60148284600681106115c257fe5b602002015161ffff16816115d257fe5b8b5491900461ffff16919091020189556116268873158de12ee547eae06cbdb200a017aca6b75d230d600484866006811061160957fe5b602002015160030261ffff168161161c57fe5b0461ffff16612125565b866002141561169957600e600582846006811061163f57fe5b602002015161ffff168161164f57fe5b8b5491900461ffff16919091020189556116998873158de12ee547eae06cbdb200a017aca6b75d230d600a84866006811061168657fe5b602002015160070261ffff168161161c57fe5b866003141561170957600e60028284600681106116b257fe5b602002015161ffff16816116c257fe5b8b5491900461ffff16919091020189556117098873158de12ee547eae06cbdb200a017aca6b75d230d60028486600681106116f957fe5b602002015161ffff168161161c57fe5b6000945050505050611f81565b866001141561176257611755888c600201868154811061173257fe5b6000918252602090912001546001600160a01b031660148486600681106116f957fe5b6001945050505050611f81565b86600214156119aa576001861015801561177d575060058611155b156117f257600581836006811061179057fe5b602002015161ffff16816117a057fe5b0461ffff168a60008d60020187815481106117b757fe5b60009182526020808320909101546001600160a01b031683528201929092526040018120600a0180549092019091559450611f819350505050565b60158610158015611804575060198611155b15611974576001600582846006811061181957fe5b602002015161ffff168161182957fe5b0461ffff168b60008e600201888154811061184057fe5b60009182526020808320909101546001600160a01b031683528201929092526040019020600590810190600019840190811061187857fe5b01805490910190555b6118c1818c60008f600201898154811061189757fe5b60009182526020808320909101546001600160a01b03168352820192909252604001902090612135565b15611966578181600681106118d257fe5b602002015161ffff168b60008e60020188815481106118ed57fe5b60009182526020808320909101546001600160a01b031683528201929092526040019020600590810190600019840190811061192557fe5b01805491909103905560028c0180546119619183918890811061194457fe5b6000918252602090912001548e91906001600160a01b031661219e565b611881565b600095505050505050611f81565b611755888c600201868154811061198757fe5b6000918252602090912001546001600160a01b031660058486600681106116f957fe5b8660031415611f7857600186101580156119c55750600b8611155b15611d69578a6007015460051415611c175760068611611afa576002808284600681106119ee57fe5b602002015161ffff16816119fe57fe5b0461ffff168b60008e6002018881548110611a1557fe5b60009182526020808320909101546001600160a01b0316835282019290925260400190206005908101906000198401908110611a4d57fe5b01805490910190555b611a6c818c60008f600201898154811061189757fe5b15611af457818160068110611a7d57fe5b602002015161ffff168b60008e6002018881548110611a9857fe5b60009182526020808320909101546001600160a01b0316835282019290925260400190206005908101906000198401908110611ad057fe5b01805491909103905560028c018054611aef9183918890811061194457fe5b611a56565b50611c12565b60036002828460068110611b0a57fe5b602002015161ffff1681611b1a57fe5b0461ffff168b60008e6002018881548110611b3157fe5b60009182526020808320909101546001600160a01b0316835282019290925260400190206005908101906000198401908110611b6957fe5b01805490910190555b611b88818c60008f600201898154811061189757fe5b15611c1057818160068110611b9957fe5b602002015161ffff168b60008e6002018881548110611bb457fe5b60009182526020808320909101546001600160a01b0316835282019290925260400190206005908101906000198401908110611bec57fe5b01805491909103905560028c018054611c0b9183918890811061194457fe5b611b72565b505b611709565b6002818360068110611c2557fe5b602002015161ffff1681611c3557fe5b0461ffff168a60008d6002018781548110611c4c57fe5b60009182526020808320909101546001600160a01b031683528201929092526040019020600019840160058110611c7f57fe5b0160008282540192505081905550611ccd828b60008e6002018881548110611ca357fe5b60009182526020808320909101546001600160a01b03168352820192909252604001902090610caa565b1561170957808260010160068110611ce157fe5b602002015161ffff168a60008d6002018781548110611cfc57fe5b60009182526020808320909101546001600160a01b031683528201929092526040019020600019840160058110611d2f57fe5b01805491909103905560028b018054611709919086908110611d4d57fe5b6000918252602090912001548c906001600160a01b0316612225565b600c8610158015611d7b5750600f8611155b15611d8e57600281836006811061179057fe5b60108610158015611da0575060198611155b15611f42578a60090160009054906101000a90048060201c6001600160a01b03169063ffffffff16876040518263ffffffff1660e01b815260040180828152602001915050600060405180830381600087803b158015611dff57600080fd5b505af1158015611e13573d6000803e3d6000fd5b505050506000611e2c878d6122cb90919063ffffffff16565b90506002828460068110611e3c57fe5b602002015161ffff1681611e4c57fe5b0461ffff168b60008e6002018881548110611e6357fe5b60009182526020808320909101546001600160a01b0316835282019290925260400190206005908101906000198401908110611e9b57fe5b01805490910190555b611eba818c60008f600201898154811061189757fe5b1561196657818160068110611ecb57fe5b602002015161ffff168b60008e6002018881548110611ee657fe5b60009182526020808320909101546001600160a01b0316835282019290925260400190206005908101906000198401908110611f1e57fe5b01805491909103905560028c018054611f3d9183918890811061194457fe5b611ea4565b611755888c6002018681548110611f5557fe5b6000918252602090912001546001600160a01b031660028486600681106116f957fe5b60019450505050505b9695505050505050565b600081815260208390526040812054819015611fab57600191505061066d565b5060015b60058111611fec57600080805260208590526040902083908260068110611fd257fe5b01541415611fe457600191505061066d565b600101611faf565b5060009392505050565b60008381526020859052604090208290826006811061201157fe5b0155506000908152602092909252604090912055565b60008080808581805b8781146120cd5780880360050a80848161204657fe5b06925080848161205257fe5b049350600189038210156120a357821561206f578360010161207e565b831561207b578361207e565b60055b600080805260208d905260409020909650866006811061209a57fe5b015495506120c4565b82156120b257836001016120c1565b83156120be57836120c1565b60055b94505b50600101612030565b5092989197509095505050505050565b60008181526020839052604081205481901580156120f9575082155b156121095750600090508061211e565b50506000818152602083905260409020546001905b9250929050565b6105a183836064600e8502611194565b600061213f61231b565b506040805160c08101825260018152606460208201526101f4918101919091526109c460608201526130d4608082015261f42460a082015280836006811061218357fe5b602002015161ffff16846005016001850360058110610d0a57fe5b60088301546040805160e083901b6001600160e01b0319168152600481018590526001600160a01b038481166024830152600160448301529151602084901c9092169263ffffffff1691606480830192600092919082900301818387803b15801561220857600080fd5b505af115801561221c573d6000803e3d6000fd5b50505050505050565b816007015460010160051061073a578160080160009054906101000a90048060201c6001600160a01b03169063ffffffff1683600701546001018360026040518463ffffffff1660e01b815260040180848152602001836001600160a01b031681526020018281526020019350505050600060405180830381600087803b1580156122af57600080fd5b505af11580156122c3573d6000803e3d6000fd5b505050505050565b6007820154600e19919091019060019060001901600202600a038083116122f2575061066d565b9182900391600283061561230c5760028304600101612311565b600283045b9091019392505050565b6040518060c001604052806006906020820280368337509192915050565b60405180606001604052806000815260200160008152602001600081525090565b6040518060a001604052806005906020820280368337509192915050565b6040518061032001604052806019906020820280368337509192915050565b6040518060800160405280600490602082028036833750919291505056fea264697066735822122067fdbf9d03efa139440e1623e93423e719dbd3f0bf5b4c20f020bbfe6ab1b0a364736f6c63430007040033",
    "sourcePath": "d:/6.DevProject/Blockchain/3.Client-project/Donation/HI5.SPACE/src/contracts/Main.sol",
    "compiler": {
        "name": "solc",
        "version": "0.7.4+commit.3f05b770"
    },
    "functionHashes": {
        "createModel()": "4be4c893",
        "display()": "0c1b7c1e",
        "enterCrowdSale(address,address)": "5a33d61c",
        "enterSpace(uint256,address,uint256)": "51ac3d7c",
        "getCurUpgradeSpace(address)": "0e702d57",
        "getMemberCnt(uint256,address)": "54acba16",
        "getMemberInfo(uint256,address,uint256)": "d931edd1",
        "output()": "f20eaeb8",
        "pushMoneyToUpgrade(address,uint256)": "a4732d4b",
        "setValue(uint256)": "55241077"
    },
    "gasEstimates": {
        "creation": {
            "codeDepositCost": "1839000",
            "executionCost": "1941",
            "totalCost": "1840941"
        },
        "external": {
            "createModel()": "infinite",
            "display()": "infinite",
            "enterCrowdSale(address,address)": "infinite",
            "enterSpace(uint256,address,uint256)": "infinite",
            "getCurUpgradeSpace(address)": "infinite",
            "getMemberCnt(uint256,address)": "infinite",
            "getMemberInfo(uint256,address,uint256)": "infinite",
            "output()": "infinite",
            "pushMoneyToUpgrade(address,uint256)": "infinite",
            "setValue(uint256)": "20189"
        }
    }
}